:020000040800F2
:1000000000000220511C0008710900087309000853
:100010007509000877090008790900080000000048
:100020000000000000000000000000007B09000844
:100030007D090008000000007F0900088109000810
:10004000A11C0008A11C0008A11C0008A11C00089C
:10005000A11C0008A11C0008A11C0008A11C00088C
:10006000A11C0008A11C0008A11C0008A11C00087C
:10007000A11C0008A11C0008A11C0008A11C00086C
:10008000A11C0008A11C0008A11C0008A11C00085C
:10009000A11C0008A11C0008A11C0008A11C00084C
:1000A000A11C0008A11C0008A11C0008A11C00083C
:1000B000A11C0008A11C0008A11C0008A11C00082C
:1000C000A11C0008A11C0008A11C0008A11C00081C
:1000D000A11C0008A11C0008A11C0008A11C00080C
:1000E000A11C0008A11C000800000000A11C0008C1
:1000F000A11C0008A11C0008A11C0008A11C0008EC
:10010000A11C0008A11C0008A11C0008A11C0008DB
:10011000A11C0008A11C0008A11C0008A11C0008CB
:10012000A11C0008A11C0008A11C0008A11C0008BB
:10013000A11C0008A11C0008A11C0008A11C0008AB
:1001400000000000000000000000000000000000AF
:10015000A11C0008A11C0008A11C0008A11C00088B
:10016000A11C0008A11C0008A11C0008A11C00087B
:10017000A11C0008A11C0008A11C0008A11C00086B
:10018000A11C0008A11C0008A11C0008A11C00085B
:10019000A11C0008A11C0008A11C0008A11C00084B
:1001A000A11C0008A11C0008A11C0008A11C00083B
:1001B000A11C0008A11C0008A11C0008A11C00082B
:1001C000A11C0008A11C0008A11C0008A11C00081B
:1001D000A11C0008A11C0008A11C0008A11C00080B
:1001E000A11C0008A11C0008A11C0008A11C0008FB
:1001F000A11C0008A11C0008A11C0008A11C0008EB
:10020000A11C0008A11C0008A11C0008A11C0008DA
:10021000A11C0008A11C0008A11C0008A11C0008CA
:10022000A11C0008A11C0008A11C0008000000007F
:10023000A11C0008A11C000800000000A11C00086F
:10024000A11C0008A11C0008A11C0008A11C00089A
:10025000A11C0008A11C0008A11C0008A11C00088A
:10026000A11C0008A11C0008A11C0008A11C00087A
:10027000A11C0008A11C0008A11C0008000000002F
:10028000A11C0008A11C0008A11C0008000000001F
:1002900000000000A11C000810B5054C237833B9FC
:1002A000044B13B10448AFF300800123237010BD49
:1002B0003C04002000000000081E000808B5034BA5
:1002C0001BB103490348AFF3008008BD00000000E4
:1002D00040040020081E000880B59CB0BFF34F8F7B
:1002E000BFF36F8F684B0021C3F85012BFF34F8FDD
:1002F000BFF36F8F5A6942F400325A61BFF34F8FD8
:10030000BFF36F8FC3F88410BFF34F8FD3F88020F3
:1003100043F6E076C2F3C904C2F34E32A507520198
:1003200002EA060C284621464CEA0007013900F192
:100330004040C3F860724F1CF6D1203A12F1200FF2
:10034000EED1BFF34F8F5A6942F480325A61BFF346
:100350004F8FBFF36F8F00F079FB022000F016FD86
:1003600000230093494BDA6A22F00102DA62DB6A69
:1003700003F001030093464B9A6942F440429A61AC
:100380009A6902F440420092009A9A699404FCD55A
:100390004FF480334FF0010E0520A02102220424E7
:1003A00008251692189217941995CDE909E30023B0
:1003B000CDE9140109A80C9310931B931A93CDE96E
:1003C000122201F005F800B1FEE703234FF03F0CC5
:1003D0004FF480622146CDE901C34023CDE90305F6
:1003E00001A8CDE90533CDE9072301F00DFB00B1EC
:1003F000FEE700F0BBF900B1FEE7BFF34F8FBFF39C
:100400006F8F214B5A6922F400325A61C3F85002AF
:10041000BFF34F8FBFF36F8FC3F88400BFF34F8FCD
:100420005A6922F480325A61BFF34F8FD3F880208B
:1004300043F6E076C2F3C904C2F34E32A507520177
:1004400002EA060C284621464CEA0007013900F171
:100450004040C3F874724F1CF6D1203A12F1200FBD
:10046000EED1BFF34F8FBFF36F8F0A4B00221A609C
:10047000094B0A4A1B6813604FF01042126882F35E
:1004800008889847FEE700BF00ED00E00004005830
:100490000048025810E000E00400009058040020DA
:1004A0007B4B2DE9F04FD3F8D42091B0794D09243E
:1004B00042F480420026784F0BA9C3F8D420284686
:1004C000D3F8D4204FF040084FF00A0BDFF8D0A14A
:1004D00002F480424FF400790092009ADA6F42F4FD
:1004E0008042DA67DA6F22F48042DA67D3F8E020DC
:1004F00042F02002C3F8E020D3F8E02002F020020E
:100500000192019AD3F8E02042F00802C3F8E020FB
:10051000D3F8E02002F008020292029AD3F8E02019
:1005200042F02002C3F8E020D3F8E02002F02002DD
:100530000392039AD3F8E02042F02002C3F8E020AF
:10054000D3F8E02002F020020492049AD3F8E020CD
:1005500042F02002C3F8E020D3F8E02002F02002AD
:100560000592059AD3F8E02042F04002C3F8E0205B
:10057000D3F8E02002F040020692069AD3F8E02079
:1005800042F08002C3F8E020D3F8E02002F08002BD
:100590000792079AD3F8E02042F08002C3F8E020E7
:1005A000D3F8E02002F080020892089AD3F8E02005
:1005B00042F04002C3F8E020D3F8E02002F040020D
:1005C0000992099AD3F8E02042F04002C3F8E020F3
:1005D0004FF48062D3F8E03003F040030A930A9BA3
:1005E0000223CDE90B230323CDE90D630F9400F023
:1005F000DBFA01230BA93846CDF82C800D93CDF8FA
:100600003CB000F0D1FA4FF400630BA923480B93E0
:100610000D960F9400F0C8FA04230BA950460F94CE
:100620000B9300F0C1FA0BA92846CDF82C90CDF819
:100630003CB000F0B9FA08230BA950460F940B9375
:1006400000F0B2FA80230BA928460F940B9300F018
:10065000ABFA0BA93846CDF82C9000F0A5FA0BA9FF
:100660002846CDF82C8000F09FFA4FF480430BA968
:1006700038460B9300F098FA32460F215C2000F0C8
:100680003DFA5C2000F06CFA11B0BDE8F08F00BFBD
:10069000004402580014025800180258000C025876
:1006A000001C025800B54FF4407395B04FF04072F3
:1006B00011480C9305230F920222069300230B92FC
:1006C00006A913930093049303926A46CDE90D3370
:1006D000CDE91133102302934FF48003059340F2C8
:1006E0000113019341F2883300F0D9FD003018BFA7
:1006F000012015B05DF804FB5C04002000B54FF448
:10070000407395B041F2883217480C93062306A92E
:1007100006930023CDE90D330F930B931393CDE98B
:10072000113300F0BCFCE8B940F2022302224FF47E
:10073000800104900C48CDE900331023CDE902324A
:1007400005236A46CDE905134FF0407306A90F93C0
:1007500041F2883300F0A3FD003018BF012015B02E
:100760005DF804FB0120FAE75C0400202DE9F0436A
:100770007D4C9DB07D4B2046236000F074FC074605
:1007800008B10124ECE0FFF78BFE01250323C4E947
:1007900001351023E3604FF0006393FAA3F3B3FA3B
:1007A00083F34FF440762046E761013B2361402309
:1007B000C4E90567236200F0F7FB0028E1D14FF49C
:1007C00080774FF06609099041F2883205906946BA
:1007D0000D900697CDF80090CDE90700CDE90B000C
:1007E000204600F05CFC0028CBD14FF0990841F284
:1007F000883269462046CDF8008000F050FC002881
:10080000BFD141F28832694620460696CDF8009065
:1008100000F045FC0028B4D141F2883269462046F8
:10082000CDF8008000F03BFC0028AAD135231790BA
:10083000139041F288321B900EA914970E93CDE9C4
:100840001500CDE91900204600F029FC002898D1B8
:10085000FFF728FF002894D1B723149617900E9322
:1008600013901B90CDE91500CDE91900FFF746FF65
:10087000002886D141F288320EA9204600F00FFCF4
:1008800000287FF47EAFFFF70DFF00287FF479AFDB
:1008900085234FF440764FF04075ADF800000E937D
:1008A0000223139041F288320EA914961795CDE9D0
:1008B0001500CDE91830CDE91A002B4800F0EFFB08
:1008C00000287FF45EAF41F288326946264800F086
:1008D00085FC00287FF455AFFFF710FF0446002881
:1008E0007FF44FAF812341F288320EA91E480E9348
:1008F000BDF8003023F0F0031B051B0D43F400434B
:1009000043F08003ADF8003000F0C9FB00287FF40D
:1009100038AF41F288326946134800F003FC0028E2
:100920007FF42FAFED236A460EA90F480E934FF4C4
:1009300040631B9415934FF4405314961193052371
:10094000CDE9164513934FF000454FF08043CDE9B4
:100950000044CDE9195300F0F7FC002818BF01242A
:1009600020461DB0BDE8F0835C040020005000521A
:100970007047FEE7FEE7FEE7FEE770477047704707
:1009800000F092B81849194810B5D1F8883043F4EE
:100990007003C1F88830164B1A6842F001021A60E1
:1009A00000221A611C68204018609A61DA611A629C
:1009B0009A62DA621A635A639A63DA631A645A644F
:1009C000186820F4802018601A660A4B1B681B0CFC
:1009D0001B04B3F1005F02D2074B01221A604FF0F3
:1009E00000638B6010BD00BF00ED00E07FEDF6EA14
:1009F000004402580010005C08810051704700005C
:100A000038B50F4B0546187808B9012038BD4FF4AA
:100A10007A730C4AB3FBF0F31068B0FBF3F000F00C
:100A2000ADF804460028F0D10F2DEED80246294635
:100A30004FF0FF3000F062F8034B20461D60E5E701
:100A400008000020000000200C00002010B503204A
:100A500000F042F800F03CFF0F49104A8B69C3F3E5
:100A60000323D35C03F01F03D8400D4B18608B6940
:100A700003F00F03D35C03F01F03D840094B186049
:100A80000F20FFF7BDFF044618B9FFF7B7FF204658
:100A900010BD0124FBE700BF00440258201E0008DF
:100AA0000000002004000020034A044B11681B785A
:100AB0000B441360704700BFA8040020080000200A
:100AC000014B1868704700BFA8040020014B18684C
:100AD000000C70470010005C074A0002D36800F465
:100AE000E06023F4E0631B041B0C43F0BF6343F49A
:100AF00000330343D360704700ED00E0164B70B540
:100B0000DC684FF0FF36C4F30224C4F10705231D4F
:100B1000042D28BF0425062B06FA05F38CBF033CE1
:100B20000024002821EA030303FA04F306FA04F47C
:100B300022EA040443EA04034FEA0313DBB206DBB0
:100B400000F1604000F5614080F8003370BD00F0B6
:100B50000F00024A1354F9E700ED00E014ED00E045
:100B6000002808DB4209012300F01F0003FA00F00F
:100B7000014B43F82200704700E100E00138B0F17A
:100B8000807F0AD2064BF021064A5860002082F886
:100B90002310072298601A6070470120704700BF39
:100BA00010E000E000ED00E04FF0B04C00232DE934
:100BB000F74F724EE246DFF8D0B10A6832FA03F41A
:100BC00002D103B0BDE8F08F4FF0010E0EFA03FE24
:100BD0001EEA020200F0BD804C6824F01004022CD2
:100BE00014D14FEAD30803F007090F2500EB88085A
:100BF0004FEA8909D8F8204005FA09F524EA0505E5
:100C00000C6904FA09F42C43C8F820404FEA430861
:100C10004FF003094C6809FA08F9056804F0030469
:100C20006FEA090904FA08F409EA05052C4304608F
:100C30004D6825F01005013D012D11D88468CD685F
:100C400009EA040405FA08F525438560446824EAA6
:100C50000E0E4C68C4F300149C4044EA0E04446039
:100C6000C46809EA04098C6804FA08F444EA09042F
:100C7000C4604C68E4006CD5414D03F0030E4FF0A6
:100C80000F08D5F8F4404FEA8E0E44F00204C5F880
:100C9000F440D5F8F44023F0030505F1B04504F025
:100CA000020405F580650194019C08FA0EF4D5F85C
:100CB000089029EA0408334CA0424CD004F5806423
:100CC000A0424AD004F58064A04248D0584548D09C
:100CD00004F50064A04246D004F58064A04244D0EC
:100CE00004F58064A04242D004F58064A04240D064
:100CF00004F58064A0423ED004F58064A0420CBF9D
:100D000009240A2404FA0EF444EA0804AC60D5432A
:100D10004F683468FF034CBF14432C4034604F6865
:100D20007468BF034CBF14432C4074604F68DCF8F8
:100D30000040FF024CBF14432C40CAF800404F68EB
:100D4000DAF80440BF0254BF05EA04022243CCF89B
:100D50000420013331E70024D4E70124D2E7022440
:100D6000D0E70324CEE70424CCE70524CAE7062411
:100D7000C8E70724C6E70824C4E700BF800000587E
:100D80000044025800000258000C025838B5104CBC
:100D9000E36813F0040FE36805D103F00703181AA2
:100DA00018BF012038BD23F007031843E060FFF7A8
:100DB00087FE054663689B0401D50020F2E7FFF734
:100DC0007FFE401BB0F57A7FF4D90120EAE700BF2F
:100DD000004802584B6A2DE9F04733B1B2F1406F39
:100DE00003D08B6A0468013B23618B690C6A002B7A
:100DF00067D00568002C35D08B68EB61CC694B6AF5
:100E000005688F69D1F820C0D1F83480D1F810E09E
:100E10000E68D1E90BA9A4B144EA0A04144344EAD8
:100E2000090444EA08042343CC6843EA0E0343EA76
:100E30000C0323433B434C69334343EA84436B61D4
:100E40002AE04AEA0904144344EA0804234343EA33
:100E50000E0343EA0C033B4333434E6943EA8646A1
:100E60006E612CE04E69CC69D1F80090B604D1F8DF
:100E700024804F6BD1E90BECACB11C43CB6814431D
:100E800044EA090444EA080444EA0E0444EA0C046F
:100E90003C431C4334436C61B2F1406F0FD0036894
:100EA0004A689A610BE043EA0903134343EA0803E3
:100EB00043EA0E0343EA0C033B4333436B61BDE853
:100EC000F08744B303688C68DC61CC69D1F8248076
:100ED00005688E69D1F820C04B6BD1F810E0D1E9DC
:100EE0000B796CB13C43144344EA09042343CC68B6
:100EF00043EA080343EA0E0343EA0C0323439AE759
:100F000047EA09042243134343EA080343EA0E0372
:100F100043EA0C03A0E7CD694B6A7DB12B43CD6A50
:100F2000046813432B430D6B2B434D6B2B43CD6850
:100F30002B434D6943EA85436361ADE7002BBED087
:100F4000CC6A0068234313430A6B13434A6B134371
:100F50004A6943EA82434361B1E72DE9F041069DC6
:100F600004460F461646984621688A683A4214BFDE
:100F700001220022B24201D1002011E06B1CF4D00A
:100F8000FFF79EFDA0EB0800A84201D8002DEBD191
:100F90000423012084F84130636C43F0010363644F
:100FA000BDE8F0817047000037B50446FFF788FDC3
:100FB0000546002C4FD094F84030012B4DD0012332
:100FC00084F8403094F8412002F0FF033AB984F8E5
:100FD00040302046FFF7E6FF41F28833A3642068E3
:100FE000A1680268013922F4706242EA01222021DC
:100FF00002600022A36C204600932B46FFF7ADFF52
:1010000020BB2168E569E3680A682B43256A22F062
:101010007F422B43656822F0D00243EA0563134305
:101020000B602168D4E905324D681343226943EA15
:1010300002430B4A2A4013434B602268136843F073
:10104000010313600123606484F84130002384F8B5
:10105000403003B030BD0120FBE70220F9E700BFBC
:10106000FEF8E0FF704710B50446A0B190F840309C
:10107000012B12D00268012380F84030136823F05E
:1010800001031360FFF7EEFF0020606484F8410065
:1010900084F8400010BD0120FCE70220FAE72DE9AA
:1010A000F34704468A469146FFF70AFD94F840301C
:1010B0008046012B34D00123022784F8403094F875
:1010C0004160F6B29E4229D100220346CDF800903D
:1010D00020216264204684F84170FFF73EFF0546F8
:1010E000A8B9024651462046FFF774FEDAF82430CC
:1010F0005BB9CDF800904346324639462046FFF7AB
:101100002CFF054618B92368DF6084F8416000238E
:1011100084F84030284602B0BDE8F0873D46F6E747
:101120000225F7E72DE9F341044688461746FFF705
:10113000C7FC94F840300646012B4DD001232568AA
:1011400084F8403094F84100C0B2984242D1002364
:101150006364B8F1000F38D0122384F841302B6952
:101160000133E3622B69C4F824800133A3626B6905
:1011700023F040636B61E36A9BB900973346012219
:1011800002212046FFF7E9FE10B923680222DA6047
:10119000012384F84130002384F8403002B0BDE8D8
:1011A000F08100973346012204212046FFF7D5FE47
:1011B0000028EDD1636A1B7885F82030636A01331B
:1011C0006362E36A013BE362D5E7636C43F00803C3
:1011D0006364E0E70220DEE70220DFE72DE9F34168
:1011E000044617468846FFF76BFC25680646AA6941
:1011F00094F84030012B50D0012384F8403094F80B
:101200004100C0B2984246D100236364B8F1000F98
:101210003CD0222384F841302B690133A3632B692E
:10122000C4F83080013363636B6923F0406343F09B
:1012300080636B6123689A61A36B9BB90097334607
:10124000012202212046FFF788FE10B923680222FE
:10125000DA60012384F84130002384F8403002B082
:10126000BDE8F08100973346012206212046FFF7B2
:1012700074FE0028EDD195F82020236B1A70236BA3
:1012800001332363A36B013BA363D5E7636C43F096
:1012900008036364E0E70220DEE70220DFE72DE9D0
:1012A000F7430446984689461646FFF709FC94F82A
:1012B00040300746012B45D0012384F8403094F894
:1012C0004150EDB29D423BD142230022CDF8008037
:1012D0002021626484F8413003462046FFF73DFE3A
:1012E00040BB2368204632689A62236872685A625B
:1012F0002368B268DA62216833690A6843F48003BC
:1013000022F4400213434FF000620B604946F36839
:10131000C9F82830FFF75EFDCDF800803B462A462D
:1013200008212046FFF719FE20B923680822DA6059
:1013300084F84150002384F8403003B0BDE8F083C6
:101340000220F7E70220F8E7F7B5044617460E46F5
:10135000FFF7B6FB94F840200346012A36D001225D
:1013600084F8402094F84120012A2DD100228221C6
:101370002046626484F84110A16C00912021FFF79F
:10138000ECFD0546D0B922687968136823F008039C
:101390000B4313607B68082B0AD123683A681A63F1
:1013A00010222368DA602268136843F48013136004
:1013B0004FF0406231462046FFF70CFD002384F8D1
:1013C0004030284603B0F0BD0225F7E70225F8E7D4
:1013D000F8B5044608B9012090E00368DD075ED443
:1013E0002368980700F1AC802368DA0623D5AB4B5D
:1013F0001A69996A02F03802082A07D0182A40F0C0
:10140000008101F00302012A40F0FB801B68DB052C
:1014100002D5E369802BDED1FFF758FB41F20303CD
:101420009E4A9842216A00F2E580536823F0F8430F
:1014300043EA816353602368190700F11B81236825
:101440009A0600F1408123685D0722D5944D2B68F0
:1014500043F480732B60FFF733FB06462B68DA05F5
:1014600040F15681A2688D4B012A40F058811A6FD5
:1014700042F001021A67A368002B00F06781FFF7B2
:101480001FFB864D064641F288372B6F9B0740F1C4
:101490005681606A002840F0698100202EE07F4B71
:1014A0001A69996A02F03802102A05D0182A0AD15E
:1014B00001F00302022A06D11B68990390D56368E4
:1014C000002B8DD187E76268744BB2F5803F16D14F
:1014D0001A6842F480321A6063680BB3FFF7F0FABF
:1014E0006E4D064641F288372B689A033FF578AF78
:1014F000FFF7E6FA801BB842F6D90320F8BD3AB9E7
:101500001A6822F480321A601A6822F48022E2E714
:10151000B2F5A02F1A68F4D142F480221A60D7E7FE
:10152000FFF7CEFA5D4D064641F288372B689B03E4
:101530007FF556AFFFF7C4FA801BB842F6D9DCE757
:10154000564B1A69996A12F0380203D0182A1BD137
:101550008E0719D11B685D0703D5E368002B3FF4A4
:101560003AAFFFF7B3FA41F203034C4A98422169BC
:10157000536895BF23F47C3323F0FE4343EA0133E1
:1015800043EA016353602FE7444DE2682B680AB3D6
:1015900023F0190313432B60FFF792FA06462B68DA
:1015A000580711D5FFF792FA41F2030322699842D6
:1015B0006B6895BF23F47C3323F0FE4343EA023388
:1015C00043EA02636B600FE7FFF77AFA801B022899
:1015D000E5D992E723F001032B60FFF771FA064685
:1015E0002B6859077FF500AFFFF76AFA801B0228C6
:1015F000F6D982E7D36823F07C5343EA0163D360D2
:1016000019E7E369254D23B32B6843F080032B6072
:10161000FFF756FA06462B68DF050DD5FFF756FA99
:1016200041F20303226A98420CD86B6823F0F84316
:1016300043EA82636B60FEE6FFF742FA801B0228F2
:10164000E9D95AE7EB6823F07C5343EA0263EB6085
:10165000F1E62B6823F080032B60FFF731FA064692
:101660002B68D8057FF5E7AEFFF72AFA801B022822
:10167000F6D942E76369094DA3B16B6F43F00103EB
:101680006B67FFF71DFA06466B6F9B073FF5D7AEFA
:10169000FFF716FA801B0228F6D92EE700440258FD
:1016A000004802586B6F23F001036B67FFF708FADD
:1016B00006466B6F9F077FF5C2AEFFF701FA801BEE
:1016C0000228F6D919E7A369804D83B12B6843F44A
:1016D00080532B60FFF7F4F906462B6898043FF51A
:1016E000B2AEFFF7EDF9801B0228F6D905E72B68AB
:1016F00023F480532B60FFF7E3F906462B68990427
:101700007FF5A1AEFFF7DCF9801B0228F6D9F4E6DD
:10171000FFF7D6F9801B64287FF6A0AEEDE63AB954
:101720001A6F22F001021A671A6F22F00402A1E672
:10173000052A1A6FF5D142F004021A6797E6FFF7FF
:10174000BFF9801BB8427FF6A0AED6E6FFF7B8F926
:101750005E4D064641F288372B6F98077FF599AEAC
:10176000FFF7AEF9801BB842F6D9C6E6574D2B6994
:1017700003F03803182B7AD02B68022823F08073EB
:101780002B6067D1FFF79CF906462B6899015BD463
:10179000AB6AA26A23F47C7323F003031343E26A67
:1017A00043EA0213AB62636BA26B013B013A5B023B
:1017B00012049BB202F4FE021343226B013AC2F3FD
:1017C00008021343E26B013A120602F0FE42134391
:1017D0002B63EB6A23F00103EB626B6BA26C23F4C7
:1017E0007F4323F0F80343EAC2036B63EB6A226C86
:1017F00023F00C031343EB62EB6A626C23F00203E9
:10180000324C1343EB62EB6A43F48033EB62EB6AD6
:1018100043F40033EB62EB6A43F48023EB62EB6A40
:1018200043F00103EB622B6843F080732B60FFF7FA
:1018300047F9054623689A013FF52FAEFFF740F9B7
:10184000401B0228F6D958E6FFF73AF9801B022818
:101850009BD952E6FFF734F904462B689B017FF5CC
:101860001CAEFFF72DF9001B0228F6D945E601282A
:10187000AA6A2B6B3FF442AE02F00301A06A8142D8
:101880007FF4A9ADC2F30512E16A8A427FF4A3ADE9
:10189000226BC3F30801013A91427FF49CAD626B65
:1018A000C3F34621013A91427FF495ADA26BC3F395
:1018B0000641013A91427FF48EADE06BC3F30663BB
:1018C0000138181A18BF012018E600BF004402585A
:1018D000464B10B51A6902F03802102A00F08480D5
:1018E000182A0CD00AB1424810BD1A68414812F0BB
:1018F000200FF9D01B68C3F3C103D840F4E7996AFD
:10190000986ADA6AC0F305105C6B0028ECD007EE29
:10191000900A02F00102C4F3CC00B7EE006AF8EEC0
:10192000E76A424307EE902A01F00302012AFAEE29
:10193000E97A02D00FD3022A48D01B6BC3F3080305
:1019400007EE103AB8EEC77A77EE277A77EE867A06
:101950009FED296A37E01A68920627D51968254A4B
:10196000C1F3C1011B6BCA40C3F3080307EE102A81
:10197000F8EEC75A85EEA67A06EE903AF8EEE66AD9
:1019800076EEA77A77EE867A184B67EE877A1B6B2E
:10199000C3F34623013307EE103AF8EEC76A87EE29
:1019A000A67AFCEEC77A17EE900A9DE71B6BC3F38D
:1019B000080307EE103AB8EEC77A77EE277A77EE8B
:1019C000867A9FED0E6A86EE267ADDE71B6BC3F3FF
:1019D000080307EE103AB8EEC77A77EE277A77EE6B
:1019E000867A9FED076AEEE706487DE700440258D5
:1019F00000093D000090D0030024744A0024744C78
:101A000020BCBE4B40787D012DE9F0410D460446D7
:101A100010B90120BDE8F081884A136803F00F0374
:101A20008B42C0F0928023685E0700F19A802368A1
:101A300018070BD5824A6069D16901F070018842AC
:101A400004D9D36923F070030343D3612368D90613
:101A50000BD57B4AA069D16901F4E061884204D9C1
:101A6000D36923F4E0630343D36123689A060BD55B
:101A7000734AE069116A01F07001884204D9136A5F
:101A800023F070030343136223689B070BD56C4A52
:101A9000E068916901F00F01884204D9936923F04D
:101AA0000F03034393612368DF0768D423689E070D
:101AB00000F19B80614A136803F00F03AB4200F210
:101AC000A2802368580700F1AA80236819070BD564
:101AD0005B4A6069D16901F07001884204D2D36920
:101AE00023F070030343D3612368DA060BD5544A0D
:101AF000A069D16901F4E061884204D2D36923F47A
:101B0000E0630343D36123689B060BD54C4AE0692D
:101B1000116A01F07001884204D2136A23F0700345
:101B200003431362FFF7D4FE454B464A9B69C3F358
:101B30000323D35C03F01F03D840434B1860434B8F
:101B4000BDE8F0411868FEF75BBF136823F00F0390
:101B50000B431360136803F00F038B427FF459AFFC
:101B600061E7374A2069916901F0700188427FF688
:101B70005EAF936923F070030343936157E7304BE3
:101B8000A1689A6922F470620A439A6161681A68CE
:101B900002291DD112F4003F3FF43BAF1A6941F214
:101BA0008838274E22F007020A431A61FEF788FFA1
:101BB00007463369626803F03803B3EBC20F3FF4A2
:101BC00075AFFEF77DFFC01B4045F2D9032021E72A
:101BD000032902D112F0007FDEE7012902D112F4BD
:101BE000807FD9E712F0040FD6E7154AE0689169C3
:101BF00001F00F018842BFF45DAF936923F00F033A
:101C00000343936156E7136823F00F032B431360DC
:101C1000136803F00F03AB427FF4FBAE51E7084AB1
:101C20002069916901F070018842BFF44EAF936959
:101C300023F070030343936147E700BF0020005285
:101C400000440258201E0008000000200C00002064
:101C5000DFF834D0002103E00C4B5B5843500431D3
:101C60000B480C4B42189A42F6D30B4A02E0002371
:101C700042F8043B094B9A42F9D3FEF783FE00F089
:101C800011F8FEF729FB704700000220401E0008F3
:101C9000000000203C0400203C040020D004002070
:101CA000FEE7000070B50D4E0D4D761BB61006D048
:101CB0000024013455F8043B9847A642F9D1094E57
:101CC000094D761B00F0A0F8B61006D000240134B0
:101CD00055F8043B9847A642F9D170BD341E000860
:101CE000341E00083C1E0008341E0008024B13B1CD
:101CF000024800F005B87047000000000D1D000804
:101D0000002301461A46184600F01EB838B50A4CA2
:101D10000A4D641BA4100AD004F18043013B05EB7B
:101D20008305013C55F804399847002CF9D1BDE8EA
:101D3000384000F06FB800BF401E00083C1E00088D
:101D4000704700BF704700BF2DE9F8432B4D064692
:101D5000286898460F469146FFF7F2FF284B1C680B
:101D6000D4F84831002B3DD05A681F2A0DDC02F10F
:101D7000010C16BB0232C3F804C0286843F8227075
:101D8000FFF7E0FF0020BDE8F8831E4B7BB34FF464
:101D9000C870AFF30080034648B3D4F8482100214F
:101DA000C0E900214FF0010CC4F848010A46C0F810
:101DB0008811C0F88C11002EDCD003EB82010124C5
:101DC000C1F88890D3F8880194402043022EC3F8CC
:101DD0008801C1F80881CDD1D3F88C110C43C3F828
:101DE0008C41C7E704F5A673C4F84831BCE72868FE
:101DF000FFF7A8FF4FF0FF30C5E700BF3804002011
:101E0000301E000800000000F8B500BFF8BC08BC98
:101E10009E467047F8B500BFF8BC08BC9E467047A8
:101E20000000000001020304010203040607080980
:101E300010000020ED1C0008BD02000899020008F7
:101E40000090D0030090D0030100000010000000BB
:101E500000000000FC02002064030020CC030020EE
:101E60000000000000000000000000000000000072
:101E70000000000000000000000000000000000062
:101E80000000000000000000000000000000000052
:101E90000000000000000000000000000000000042
:101EA0000000000000000000000000000000000032
:101EB0000000000000000000000000000000000022
:101EC0000000000000000000000000000000000012
:101ED0000000000000000000000000000000000002
:101EE00000000000000000000000000000000000F2
:101EF00000000000000000000100000000000000E1
:101F00000E33CDAB34126DE6ECDE05000B000000A5
:101F100000000000000000000000000000000000C1
:101F200000000000000000000000000000000000B1
:101F300000000000000000000000000000000000A1
:101F40000000000000000000000000000000000091
:0C2270000000000000000000AC04002092
:0200000490006A
:100000000000082481030090893300908D33009014
:1000100091330090953300909933009000000000D8
:10002000000000000000000000000000719001903E
:100030009D3300900000000001910190A187019084
:10004000D1030090D1030090D1030090D103009020
:10005000D1030090D1030090D1030090D103009010
:10006000D1030090D1030090D1030090D103009000
:10007000D1030090D1030090D1030090D1030090F0
:10008000D1030090D1030090D1030090D1030090E0
:10009000D1030090D1030090D1030090D1030090D0
:1000A000D1030090D1030090D1030090D1030090C0
:1000B000D1030090D1030090D1030090D1030090B0
:1000C000D1030090D1030090D1030090D1030090A0
:1000D000D1030090D1030090D1030090D103009090
:1000E000D1030090D103009000000000D1030090E4
:1000F000D1030090D1030090D1030090D103009070
:10010000D1030090D1030090D1030090D10300905F
:10011000D1030090D1030090A1330090D10300904F
:10012000D1030090D1030090D1030090D10300903F
:10013000D1030090D1030090D1030090D10300902F
:1001400000000000000000000000000000000000AF
:10015000D1030090D1030090D1030090D10300900F
:10016000D1030090D1030090D1030090D1030090FF
:10017000D1030090D1030090D1030090D1030090EF
:10018000D1030090D1030090D1030090D1030090DF
:10019000D1030090D1030090D1030090D1030090CF
:1001A000AD330090D1030090B9330090D10300909B
:1001B000D1030090D1030090D1030090D1030090AF
:1001C000D1030090D1030090D1030090D10300909F
:1001D000D1030090D1030090D1030090D10300908F
:1001E000D1030090D1030090D1030090D10300907F
:1001F000D1030090D1030090D1030090D10300906F
:10020000D1030090D1030090D1030090D10300905E
:10021000D1030090D1030090D1030090D10300904E
:10022000D1030090C5330090D1330090000000004E
:10023000D1030090D103009000000000D103009092
:10024000D1030090D1030090D1030090D10300901E
:10025000D1030090D1030090D1030090D10300900E
:10026000D1030090D1030090D1030090D1030090FE
:10027000D1030090D1030090D10300900000000052
:10028000D1030090D1030090D10300900000000042
:0802900000000000D103009002
:1002A00010B5054C237833B9044B13B10448AFF3B0
:1002B00000800123237010BD585B00240000000063
:1002C0003C14039008B5034B1BB103490348AFF33B
:1002D000008008BD000000005C5B00243C1403901B
:1002E00001F0FF01102A2BDB10F0070F08D010F8E7
:1002F000013B013A8B422DD010F0070F42B3F6D1EB
:10030000F0B441EA012141EA014122F007047FF003
:1003100000070023F0E80256083C85EA010586EA5A
:10032000010685FA47F5A3FA87F586FA47F6A5FA96
:1003300087F68EB9EED1F0BC01F0FF0102F00702A2
:1003400032B110F8013B013A83EA010313B1F8D14D
:100350000020704701387047002D06BF354603382E
:10036000073815F0010F07D1013015F4807F02BF67
:10037000013015F4C03F0130F0BC0138704700BFB8
:10038000DFF834D0002103E00C4B5B5843500431BC
:100390000B480C4B42189A42F6D30B4A02E000235A
:1003A00042F8043B094B9A42F9D313F0C3F830F0FA
:1003B0005FFB02F0E5FA704700000824805A0390C2
:1003C0000000002454010024585B0024244102242E
:1003D000FEE70000704700BF704700BF08B501F09E
:1003E00081FEBDE8084001F001BE00BF01F07CBE07
:1003F00040687047416070474FF0E020084B094A61
:10040000D0F8FC1D41F08071C0F8FC1DD3F8B01F7E
:100410000A43C3F8B02F1A6842F001021A6070470D
:10042000001000E055CEACC5511A01EB5301B1FBF1
:10043000F3F07047014B5868704700BF001000E0B0
:10044000704700BF10B504460C212FF051FF204625
:1004500010BD00BF03680C4A1B6910B5044649B1C2
:1004600093420DD1094B5868A26863689B1A0344F4
:10047000636010BD934205D1044B5868A06010BD65
:100480009847F1E79847F9E735040090001000E03D
:10049000704700BF0000000000B585B008220023AF
:1004A000002069469FED067BCDE902238DED007BA0
:1004B00012F04EFF05B05DF804FB00BFAFF3008003
:1004C000E00100001001000030B585B000200D46AD
:1004D000144601A90190CDE9020012F0C7FF01986E
:1004E00020B10120DDE902232A60236005B030BD80
:1004F00010B5044604212FF0FBFE204610BD00BFBE
:100500000821104808B513F017FD012801D10E4B42
:10051000186080210D4813F00FFD012801D10A4B0E
:1005200058604021094813F007FD012801D1064B0E
:1005300098604021064813F0FFFC012801D1024BCE
:10054000D86008BD00180258745B002400040258EB
:1005500000000258032827D8DFE800F01D140B0222
:10056000124B40211248DA68B2FA82F2520913F0B3
:10057000E9BC0E4B40210F489A68B2FA82F2520948
:1005800013F0E0BC094B80210A485A68B2FA82F2A3
:10059000520913F0D7BC054B082107481A68B2FA74
:1005A00082F2520913F0CEBC704700BF745B002486
:1005B000000002580004025800180258032827D8E7
:1005C000DFE800F01D140B02124B40211248DA68DC
:1005D000003A18BF012213F0B5BC0E4B40210F4862
:1005E0009A68003A18BF012213F0ACBC094B802175
:1005F0000A485A68003A18BF012213F0A3BC054B01
:10060000082107481A68003A18BF012213F09ABC63
:10061000704700BF745B00240000025800040258B9
:1006200000180258032813D8DFE800F00E0A06026B
:100630004021084813F08ABC4021074813F086BCCB
:100640008021054813F082BC0821044813F07EBCC9
:10065000704700BF000002580004025800180258FA
:1006600000207047012380F8781080F879307047B7
:10067000002070470A1E034B416418BF01221A7004
:10068000704700BFF334022400207047836B084694
:1006900003B11847704700BF4FF6FF70704700BFA7
:1006A000704700BF10B504461CF02CFF236820469D
:1006B000D3F8AC30BDE81040184700BF01F0EEBDE4
:1006C00001F0F2BD10B501F0D7FE12480023C0F8CA
:1006D0008430BFF34F8FD0F8803043F6E074C3F31B
:1006E0004E3CC3F3C90E4FEA4C1C0CEA040173469E
:1006F00041EA8372013BC0F874225A1CF8D1ACF174
:10070000200C1CF1200FF0D1BFF34F8FBFF36F8F80
:1007100010BD00BF00ED00E001F09CBD01F0AABFDC
:1007200001F094BF01F0A0BD08B5094B1B888B42B6
:1007300008D8084B1B88934204D80748074B018010
:100740001A8008BD064B9E21064A07482FF0FEFD81
:10075000E8340224EA340224EE340224F034022481
:100760003C1F0390A01F0390E41F039010B50446A4
:100770001CF044FA60680368BDE810401B69184724
:100780001CF011B910B5044688212FF0B1FD2046A8
:1007900010BD00BF90F87A301BB1406803681B6839
:1007A00018471846704700BF90F8782090F834300A
:1007B0009A420B4B1A780BD04AB90A4A4FF0010CF7
:1007C0000949108883F800C00B880880138070479F
:1007D000002AFCD0034A4FF0000C0349F1E700BFA8
:1007E000EC340224EA340224E83402244068044A47
:1007F00003689B69934201D100207047184700BFEE
:100800006106009038B5044601F03EFF0B4A2368AC
:100810000B49D3F88C3093420DD10A4B012261640D
:100820001A7004F17C052846FFF7E6FD01232561D7
:1008300084F8703038BD20469847F2E7750600907E
:10084000000000D0F3340224A9B10264003AC1636D
:1008500018BF01220C490A7002680C49D2F88C209A
:100860008A4206D1191E0A4A436418BF0121117039
:10087000704719461047074B40F2D221064A0748F5
:1008800010B52FF063FD00BFF2340224750600900E
:10089000F33402242C20039064200390E41F03907F
:1008A00008B503680446174DD3F88030984723688D
:1008B00020469B6F984700F0EFFF236820461B6F90
:1008C000984701220421104813F03CFB01228021AB
:1008D0000E4813F037FB01220D48114613F032FB8E
:1008E00000F0DAFF236820461B6FAB4207D11CF0F3
:1008F00009FE23682046D3F8AC309847F0E79847C4
:10090000EEE700BFA506009000000258000C025858
:100910000028025808B5074B28B1186801211CF0BF
:100920000BFE012008BD014618681CF005FE0120E1
:1009300008BD00BFF43402244069704790F84000BD
:10094000704700BF036B0BB101207047C06A0038CD
:1009500018BF0120704700BF80687047704700BF14
:1009600004308C460FC88CE80F007047704700BFFA
:1009700008B5034A4FF4DE71024B03482FF0E6FC42
:10098000902103908C210390EC21039010B5044634
:1009900048212FF0ADFC204610BD00BF0000000034
:1009A0002DE9F04F4A4C83461D46C068022383B0B0
:1009B000484F4FF4707C23610307474B18BF20F06A
:1009C0000F00DFF840A1454E18BF1030DFF8388126
:1009D000DFF8389120600009E06000EB4000C001C2
:1009E00000900020C4F804C0386018603C4BCAF87E
:1009F00000001860DBF81030307003F00F03307423
:100A0000C3F11003A360374CDAF800302560364C90
:100A100006EB0313354D206035485B6801603548AF
:100A2000354C02604FF4504234489FED277B86EDF1
:100A3000027B86ED067B14F0B5FBDBF84430C8F88A
:100A400000302B6813B1D9F8003063BBD8F8000030
:100A5000037A2BB9204B1B681B01F35C012B24D0BC
:100A60003B68012B06D1DAF800301B01F35C0BB9AF
:100A70002B6813B3022323602368022B09D0236859
:100A8000012BDED100232B60C9F8003003B0BDE894
:100A9000F08F1B4B4FF0FF31186817F0E9FF236808
:100AA000012BCED1EEE70123E5E7D9F80030002B8A
:100AB000D6D103681B699847D2E702210F483B60F3
:100AC00014F0B8FC0223D6E700000000000000008C
:100AD000905B0024BC5B0024885B00240800002499
:100AE0008C5B0024AC5B0024B85B0024B45B002466
:100AF000C05B0024C45B0024B05B0024D4910024BC
:100B0000CC5B0024C85B0024A85B0024845B002429
:100B1000F8B5036801292A4E0446DB6A38BF012173
:100B2000B3420D4638D1836899422AD86B1EE269D8
:100B3000206B02EB031750B3A36B0F2B37D903685D
:100B400007F10806DB6831469847206B1022616B7D
:100B500003681B699847B0B1236BE663BBB1626B56
:100B6000937A517A1B0443EA0123117AD27A0B4318
:100B700043EA0263226A6561043A1A44A261F8BD3D
:100B8000A3681D46D2E70D2384F84030E4E707F15F
:100B90001003E26AD358EDE798478542C6D9236827
:100BA000DB6AB342ECD0204698470546BEE70920F1
:100BB000044B054A972184F8400004482FF0C6FBF7
:100BC00059090090882203909C220390EC21039005
:100BD0002DE9F04F0446006B83B01546A669002846
:100BE00000F0AD80A36B072B40F2B0800368314664
:100BF000DB689847206B0822616B03681B69984784
:100C0000002800F09180A769206B3A1DE663002858
:100C100000F0A580921B0837D4E90D63B118B25CCF
:100C20008E7891F801C0360446EA0C261643CA783D
:100C300046EA0266B342C0F0898003683946DB6841
:100C40009847206B3246616B03681B69984710B95F
:100C50000D2384F84030616BE763002D58D0444B7E
:100C60000022444F1D60444B3A60DB68434D03EB68
:100C70004303DFF834A1DFF834B1DB014048CBF89F
:100C8000002000933F4BCAF800202A701A602A7493
:100C9000DAF8003002603C4A05EB03133B48116070
:100CA0003B4A5B6816604FF450423A4E3A4CDFF8CC
:100CB0000081DFF800919FED2C7B85ED027B85EDB7
:100CC000067B14F06FFA17E0D8F80000037A2BB90E
:100CD000DBF800301B01EB5C012B1DD03B68012BC6
:100CE00006D1DAF800301B01EB5C0BB93368FBB1BD
:100CF0000223236023685BB93368002BE4D0D9F862
:100D00000030002BE0D0012323602368002BF3D0B8
:100D1000012003B0BDE8F08FD9F80030002BDDD101
:100D200003681B699847D9E70D2384F840306AE7C8
:100D3000022116483B6014F07DFB0223D9E7321DE7
:100D4000E16A06F108038E58194486E70920134B1F
:100D5000134A972184F8400012482FF0F7FA3E46D4
:100D6000EEE700BFAFF300800000000000000000CD
:100D7000AC5B0024BC5B0024905B002408000024D2
:100D8000B85B00248C5B0024C05B0024D491002459
:100D9000C45B0024B45B0024B05B00248822039071
:100DA0009C220390EC210390C85B0024885B002404
:100DB000A85B0024845B002443692DE9F047002BE5
:100DC00000F098800546006BAC69002800F0828036
:100DD000AB6B072B40F2838003682146DB689847A2
:100DE000286B0822696B03681B69984700286DD03F
:100DF000AB69286B1A1DEC6300286DD0121B6C6B5D
:100E0000A118A25C8C784E78240444EA062414438A
:100E1000CA7844EA02640D2743F2300639E0AB6B2E
:100E2000072B5CD903682146DB689847286B0822AA
:100E3000696B03681B69984708B985F84070286B8F
:100E4000AA69EC63002853D0121B696B8B18895C6C
:100E50009C7993F805A0240493F804E093F801909A
:100E600044EA0A2493F807C093F8038041EA092171
:100E70009A7844EA0E0442EA082344EA0C6446F2F3
:100E80006432B14208BF93420CBF012100211AD045
:100E9000AB691C44AB6A04F108029A420ED26B693A
:100EA0000934013324F00104C5E905340028B6D122
:100EB000EB6A1A19195B53885468E0E701222B6A20
:100EC0000021C5E905230846BDE8F0870D2385F814
:100ED00040308DE7221D2346E96A8C589BE70920A4
:100EE000074B084A972185F8400007482FF02EFA53
:100EF0001446DDE7054BDD21054A03482FF026FAAD
:100F0000882203909C220390EC210390E02203901E
:100F10002C23039043692DE9F041002B00F09B80C6
:100F20000446006B0E46A569002861D0A36B072B11
:100F300040F2978003682946DB689847206B0822B7
:100F4000616B03681B69984700284CD0206BA1692E
:100F5000E56300284BD001F1040C8A1C636BACEBF9
:100F6000050C521B4D1B03EB0C0E13F80C7003EB1E
:100F7000050813F805C098F801509EF801804CEA66
:100F8000052C9EF802509EF803E02D0445EA082542
:100F90003D4345EA0E6503EB020E9B5C9EF8012083
:100FA00043EA02234A19A76A02F1080EBE4513D28A
:100FB00043F23007BC4524D146F26437BB4220D10E
:100FC0001DBB72460132636A22F001029A42A2619D
:100FD00002D00120BDE8F0810122236A0020C4E98B
:100FE0000523BDE8F0810D2384F84030AEE70D46BF
:100FF000E26A2946002032F805C02A445388556821
:10100000D0E7A261002DDDD1DBE701F10807A76180
:10101000F0B1A36B9D4224D803683946DB6898473A
:10102000206B2A46616B03681B69984710B90D2332
:1010300084F84030616BE76326B133462A46204688
:10104000FFF7AEFCD4E9053201332A446361B9E706
:10105000E16A3944F0E7074BA921074A07482FF016
:1010600075F90920064B074A972184F84000034888
:101070002FF06CF9E022039060230390EC210390A1
:10108000882203909C22039010B5002204460E4B48
:1010900001201146E263236084F84020C4E9052260
:1010A000C4E90722C4E90922C4E90B22C4E90D22DC
:1010B000C4E90322C4E9012217F08AFC034B02466B
:1010C00020461A6010BD00BF84240390CC5B00242E
:1010D0002DE9F04F0021066B83B00546816180F851
:1010E0004010002E00F0AA81836B472B40F2028251
:1010F00033683046DB689847286B4822696B036881
:101100001B699847002800F0CE8000232E6BAF6942
:10111000B146EB63002E00F09281D5F834800422B2
:10112000BE4908EB070B58462FF0F0FB002840F0B3
:10113000EA8107F108000422B949A86140442FF070
:10114000E5FB002840F0FA8107F10C0A0422B549BA
:1011500008EB0A00C5F818A02FF0D8FB0190002872
:1011600040F0E2819BF812409BF8112024049BF888
:10117000133044EA02249BF81020144354EA036419
:1011800000F0CB8107F114000422A74940442FF05E
:10119000BDFB002800F08B800623DDF804B007F1CA
:1011A000180085F8403040440422A0492FF0AEFBDF
:1011B000002800F08580072385F840305444083427
:1011C000B9F1000F15D0AB6B0B2B40F29381D9F81E
:1011D000003021464846DB689847286B0C22696B33
:1011E00003681B69984710B90D2385F840302E6BB2
:1011F000EC6395F840908E4F04F10808002E41D022
:10120000EB6B0422686B3946A8EB030318442FF0FC
:101210007DFB00283ED0B9F1000F3ED1AB6AA3425E
:1012200040F2A7800434002E46D0EA6BD5E90D13B6
:10123000A41A0B2B01EB0402095D947850784FEA55
:101240000444D27844EA002444EA010444EA0264F3
:10125000444440F24F81336821463046DB6898476A
:10126000286B0C22696B03681B69984710B90D2322
:1012700085F840302E6B04F1080895F84090EC6337
:10128000002EBDD1E86A0422394640442FF03EFBCF
:101290000028C0D1B9F1000F6BD00A2385F8403087
:1012A00003B0BDE8F08F0D2385F840302DE707F13E
:1012B00018004FF0010B76E7EB6A1C5944449BE79A
:1012C000BBF1000F3FF47AAF07F12001B9F1000F35
:1012D00000F0F480EB6B6A6BC91AC3F13000DFF8E1
:1012E00058C112F8018002EB010EC3F14001C3F1B5
:1012F000440338449EF801B039441F449EF802303C
:101300009EF803E01B0443EA0B2343EA080343EA85
:101310000E63ACFB03C302EB000C9B096B609CF8F3
:1013200002309CF801801B0412F800E09CF803C016
:10133000501843EA082343EA0E0343EA0C63AB6008
:10134000837890F801C01B04515C43EA0C230B43E3
:10135000C17843EA0163D119EB608B7848781B04AC
:10136000D25D43EA00231343CA7843EA02632B6148
:1013700024E704F10C030434AB61002E00F0B280CA
:10138000EB6BE41AD5E90D1204F1020C671C11F89D
:1013900004E0E01C11F80C30032A11F807904FEA22
:1013A000034343EA092343EA0E0311F800E043EA4A
:1013B0000E6343446B6211F80C3011F807C00F5DE7
:1013C0004FEA0344095C44EA0C2444EA070444EA73
:1013D0000164444440F28E80336821463046DB6825
:1013E0009847286B0422696B03681B69984700289B
:1013F0005AD02B6BEC63002B00F0AA80686B0422A0
:101400000C492FF083FA002866D10122AB69EC6108
:101410006A612B6203B0BDE8F08F00BFBC2303906C
:10142000742403906C240390642403904C24039050
:10143000542403905C240390D34D62103746D5F8B2
:101440002C800422444908EB070420462FF05EFA62
:10145000002858D107F1080004224049A8614044FF
:101460002FF054FA002869D107F10C0A04223C49F4
:1014700008EB0A00C5F818A02FF048FA83460028A8
:1014800052D12469002C48D007F1140004223549B8
:1014900040442FF03BFA58B907F118004FF0010B08
:1014A00040444FF000097FE60D2385F84030A0E767
:1014B000062307F1180085F84030F1E7EB6A5A5827
:1014C0003B442949A1FB021292096A601A6BAA6087
:1014D0001A6CEA605B6C4AE70B2385F8403003B076
:1014E000BDE8F08FE86A035943446B6204594444F1
:1014F000204484E709201D4B1D4A972185F84000B0
:101500001C482EF023FF03201B4B1C4A40F22511E0
:1015100085F8400017482EF019FF194B4FF49D71C4
:10152000164A14482EF012FF0520164B134A4FF4AA
:101530009A7185F840000F482EF008FF0420124BE6
:101540000E4A40F22D1185F840000A482EF0FEFEAA
:10155000E86A204453E700BFBC230390742403903F
:101560006C24039064240390D34D6210882203906E
:101570009C220390EC210390C4230390E02303906A
:1015800040240390282403901024039010B40024D6
:10159000C0E90A2104635DF8044BFFF799BD00BF61
:1015A00010B50B680446002208469B68C4E90B216D
:1015B000984703462046A362BDE81040FFF788BD68
:1015C0004B68012B15D0022B0BD04BB9CB685807B9
:1015D00024D18B685A0703D023F0070308338B60AC
:1015E0007047CB681A07F4D023F00F031033CB6099
:1015F000EFE7CB681A0703D023F00F031033CB605B
:101600008A68100703D022F00F0210328A601B098B
:101610000549120902FB03F30B60704723F007032F
:101620000833CB60D5E700BFA45B002410B40C4C9A
:101630000C4A236812680B449342236002D35DF87E
:10164000044B7047D21A084B1C68B2F5504F214426
:1016500028BF4FF450425DF8044B196013F01CBED4
:10166000B85B0024C45B0024C05B0024F8B5224CA6
:101670000646224D2368206821491B0105EB001016
:10168000204FD1F800C082602068FA6805EB001096
:10169000C0F80CC00868104408602168013121605E
:1016A0000121E95423688B4201D900232360236878
:1016B0001B01EB5C83B9236802EB4202304605EB69
:1016C0000315D201696813F0EBFD0F4B1B681A7A02
:1016D0000AB99B7A4BB1F8BD0221304613F0A4FD44
:1016E0000A4B0121FA681960E5E7094B1868BDE863
:1016F000F84017F0F1B900BFC85B002408000024CF
:101700008C5B0024905B0024A85B0024BC5B00245D
:10171000CC5B002472B6FEE7014B01221A607047D1
:10172000B45B002470B51B490223C5681A4C0A68D3
:1017300063632B01194EB3FBF2FC02FB1C324B68B6
:10174000366803FB0CFCCB68A6EB030E0E694FEA70
:101750000C1C754506FB02F216D3896841EA035159
:1017600061640F49C3F11E034068002409681B012E
:101770001144094A6144D16313640A490A4B146154
:10178000D161D060136070BD190541F01001616432
:10179000E7E700BF905B002400100052A45B002428
:1017A000AC5B00240B0009FF010201000C4B00217F
:1017B00001701A68816001321A601A68012A00D922
:1017C0001960084B08491B68C968C2685B1A9A42CD
:1017D00002D3064B01221A60054B186817F07CB93A
:1017E000885B0024A45B0024905B0024845B0024BD
:1017F000CC5B00240121002208B5084617F0E8F868
:101800000B4B186040B100220421012017F090F921
:10181000084B186030B108BD074B2821074A08481B
:101820002EF094FD074B2C21044A05482EF08EFD26
:10183000D45B0024D05B0024C02403900C250390CB
:101840003C250390CC250390024B4FF0FF311868E4
:1018500017F00EB9D45B0024014B186817F03CB99F
:10186000D45B0024024B0021186817F001B900BFB7
:10187000D45B0024014B186817F02EB9D45B002408
:101880000348002303491A46006817F08FB900BFC8
:10189000D05B00242800002410B5002382B0074C40
:1018A0001A4601A9206817F0C3F94FF0FF33002250
:1018B00001A9206817F0BCF902B010BDD05B00246C
:1018C00003685B6C184700BF0120704705494FF063
:1018D0008062054B0160C3F88820BFF34F8FBFF3D0
:1018E0006F8F7047B827039000E100E00F4B82B084
:1018F0000F49D3F8D4200F4842F010020862C3F811
:10190000D420D3F8D42002F010020192019ADA6FA9
:1019100042F01002DA67DA6F22F01002DA67064B43
:101920004FF080629A6002B0704700BF00440258D6
:101930006C910024191D009000E100E040F2EF30AE
:10194000704700BF09494FF08062094B10B5016034
:101950000446C3F88820BFF34F8FBFF36F8F40F664
:10196000A8512EF0C5FC204610BD00BFB82703903B
:1019700000E100E010B504464FF0FF31D0F8A40DAF
:1019800016F0E0FF606803681B68984708B9637A3F
:1019900063B91549154A0B681B01D35C012B14D0A0
:1019A000D4F8A40DBDE8104016F0F0BF237A002B48
:1019B000EFD12268204684F8A03D536A9847D4F8B6
:1019C000A40DBDE8104016F0E1BFA07A0028E7D1D1
:1019D000207A0028E4D1086884F8A03D02EB0010CA
:1019E0002372FFF79FFEDBE7885B002408000024DA
:1019F00090F8A03D10B5044653B903689B6A984718
:101A00001C491D4A0B681B01D35C012B14D010BD6F
:101A1000037A2BBB606803681B689847034600285D
:101A2000F5D1627A002AF2D02268204684F8A03DDF
:101A3000536ABDE810401847104800680028E6D1F6
:101A4000A07A0028E3D1207A0028E0D1086884F841
:101A5000A03D237202EB0010BDE81040FFF762BE0C
:101A600004490022044B0868227203EB0010FFF7C0
:101A70009DFECFE7885B002408000024845B0024DF
:101A800038B58B7F0A2B3ED8DFE803F03B062A3DB2
:101A90003D3D3D06060606000124B1F814C0C88A83
:101AA0004A8B1C4B40EA0C40A2EB0C025C6358646E
:101AB0000869D8631A640D68082D13D00022DC6110
:101AC000154C1A61C9680A0A4809C1F3C40102F435
:101AD000784200F4FC6002430A439A631C6038BDFC
:101AE0000024DAE79A611A615C620C4A0C7F42EAD0
:101AF00004620B4CDA61CA681A625861D8601C60D3
:101B000038BD0224C9E7074B8721074A07482EF052
:101B10001DFC00BF0010005201020300090001007B
:101B200001020200102603902C26039078260390D1
:101B3000F8B591F81DE0BEF10B0F00F2C180DFE8AF
:101B40001EF0630065004C00BF00BF00BF00BF0077
:101B50000C000C000C000C000C00052591F81EC0B8
:101B6000BCF10B0F00F2AC80DFE80CF0524B0EAA78
:101B7000AAAAAA0606060606ACF10703032B00F282
:101B8000A5800526012701E0002637468B8A4A8B6F
:101B90000C8BC88AD21AE41A40EA0340524B1A64EA
:101BA0009A611C614A685F6358640869D863DA60A7
:101BB0000A68802A3BD012D8202A2CD0402A2AD06A
:101BC000042A69D10A7F494945EA026242F4003297
:101BD000DA615E6258611960F8BD0025BEE7B2F5B2
:101BE000807F67D0B2F5007F56D10C7F404A42EA31
:101BF0000462DA613D4AC96819625E6258611A601E
:101C0000F8BD01263746C1E70225A7E70125A5E76C
:101C100002263746BAE70B7F334A45EA036343F4AB
:101C20000033D361314B566250611360F8BD8A684E
:101C3000141DDC620C7F117845EA046545F400351B
:101C4000DD615E625861B1B951880124D869294AC1
:101C50000139024042EA0122DA61234AD36943F0A2
:101C60002003D361D3699B06FCD41023936024B373
:101C70001E4B1360F8BD01292ED15188FF3CD86955
:101C80001C4A01F1FF3118BF0124024042EA01223F
:101C900042F01002DA61E0E70A7FE645124B45EABE
:101CA000026514BF144A40F2012245F40035DD619B
:101CB0001A60F8BD0C7F114A99E70F4B1360F8BD0D
:101CC0000F4B66210F4A10482EF040FB0C4B87212A
:101CD0000E4A0D482EF03AFB0D4B40F211110D4A01
:101CE00009482EF033FB00BF001000520102020031
:101CF00009000200EF00FFFF010201000A000200DC
:101D00001026039008270390782603902C26039032
:101D10005427039070270390254B26491B6810B564
:101D20005C6823685A698A4220D194F8A02D92B148
:101D3000237A002B32D1606803681B6898470346FA
:101D400098B9627A8AB12268204684F8A03D536A25
:101D5000BDE8104018479B6A204698471649174A25
:101D60000B681B01D35C012B04D010BD2046BDE8DD
:101D700010401047124800680028F6D1A07A0028C9
:101D8000F3D1207A0028F0D1086884F8A03D2372AE
:101D900002EB0010BDE81040FFF7C4BC064900226A
:101DA000064B0868227203EB0010FFF7FFFCC2E746
:101DB000F4340224F1190090885B00240800002408
:101DC000845B002470B5104B0646044600250C3099
:101DD000602235727572706044F8203B21461BF01A
:101DE000D5FC214606F55A63CD6024318B42FBD1E8
:101DF00086F8A05D0020C6F8A45D16F063FD0346DA
:101E00003046C6F8A43D70BDB82703900120704746
:101E100038207047C1EBC10100EBC10008307047AA
:101E2000C1EBC10100EBC1000830704701207047D1
:101E30004FF41150704700BF4FF4115303FB0100E2
:101E4000083070474FF4115303FB0100083070470E
:101E5000012070471020704700EB011008307047D8
:101E600000EB011008307047084602F0FDBD00BFCE
:101E7000034B10B50446036019F083FC204610BDE7
:101E800070280390054B10B50446036019F079FCE7
:101E9000402120462EF02CFA204610BD70280390D9
:101EA000034B10B50446036019F06BFC204610BDCF
:101EB0003C280390064B10B50446036019F061FC02
:101EC00042F2484120462EF013FA204610BD00BFD2
:101ED0003C280390034B10B50446036019F051FCF5
:101EE000204610BD08280390054B10B5044603603A
:101EF00019F047FC182120462EF0FAF9204610BDB3
:101F00000828039010B504460C490D4A42F274406B
:101F100004F5005321602044C3F8742419F031FC07
:101F20002046084B40F82C3F19F02BFC2046064B6E
:101F300040F8143F19F025FC204610BDA42803905A
:101F4000702803903C2803900828039010B50C4C8F
:101F50000C4A04F500530C490C48C3F87424216062
:101F600019F00FFC20460A4B40F82C3F19F009FCF1
:101F70002046084BBDE8104040F8143F19F001BC62
:101F8000DC5B002470280390A42803905080002478
:101F90003C2803900828039010B504460F4A1049C6
:101FA00042F2744004F5005321602044C3F87424C5
:101FB00019F0E7FB20460B4B40F82C3F19F0E1FBF2
:101FC000094B204640F8143F19F0DBFB204642F253
:101FD00014612EF08DF9204610BD00BF70280390CB
:101FE000A42803903C280390082803902DE9F04191
:101FF00082B0002401F074FA054601F075FA234618
:10200000014622462846009420F0F2FC294B2A4A39
:1020100020462A4C1A600AF00DF9294820F050FC9D
:102020002368BFF35B8FDB0705D5264802B0BDE808
:10203000F041FEF7E7BB20462EF05CF90028F4D013
:10204000214D224F224B05F1140007F1440605F102
:102050002C082B60EF6068602E61C5F8088019F0CD
:1020600091FB1C4B40466B6119F08CFB1A4B3846B8
:10207000EB6219F087FB05F50053184A03F2B440F0
:10208000C3F8742410F018F92A4607F140013046CD
:102090000AF046F9304602F0E7FC11482EF074F9D8
:1020A00020462EF033F9074802B0BDE8F041FEF7B4
:1020B000A9BB00BF5035022424900024D85B002423
:1020C0002C0000249C8F0024DC5B00245080002422
:1020D000A4280390082803903C28039070280390BC
:1020E0004D1F0090704700BF0148FEF7D9BB00BFED
:1020F0009C8F002470B5254B254C264E264D236021
:102100003046FFF75FFE284624F04AFF234B0022AB
:102110004FF4F0704FF48871DA621A865A6583F8CA
:1021200058205A66DA6683F87020C3E903421C4CD3
:102130009C661C4C23601C4C20801C4C20801C4C3A
:102140001C48218001801C4C1C491D48C3E90165C5
:102150004FF48075C3E905229D64C3E90722C3E9F2
:102160000922C3E90E22C3E91022C3E91322C3E9FD
:102170001722227019601349C3F8802083F8342095
:10218000C3F88420D967C3E91D2070BD2C1F0390BC
:10219000F0810024F4810024289000249C8F0024E6
:1021A00001000001F4340224E8340224EE34022455
:1021B000EA340224F0340224EC340224BC200390DC
:1021C00000000101041F03900148FFF77FBB00BF1F
:1021D000F481002490F8252012B103685B69184748
:1021E000704700BF0020704781807047C1807047F2
:1021F0000181704741817047704700BF704700BF41
:10220000704700BF704700BF704700BFB0F806C0FE
:102210000368A2EB0C02B0F804C05B6DA1EB0C01EB
:1022200012B209B2184700BF13684FF6FF7C4FF097
:10223000FF31A0F80CC0C0E907311060704700BF43
:1022400090F825201AB190F8242002B11860704748
:1022500000207047034B902283F85A2383F85823B9
:10226000704700BF00E100E0094A0A49D3680A4804
:10227000C3F30A03013B9BB20B801169C1F30A014E
:10228000013901801364536B43F0010353637047BA
:1022900000100050AE900024AC900024014BD3F805
:1022A000AC00704700100050024B0122C3F8AC1084
:1022B0005A62704700100050C0E90C1281637047E9
:1022C000704700BF00EB8100114640680368DB687F
:1022D000184700BF10B5044648212EF009F82046E3
:1022E00010BD00BF11B990F82900704708B5034A26
:1022F0004FF4B871024B03482EF028F8C42803901D
:10230000B0280390502A039021B940681146036811
:102310001B6B1847034B4FF4B571034A034810B5C4
:102320002EF014F8B0280390942A0390502A0390BA
:1023300009B9C068704708B5024A7921024B0348C1
:102340002EF004F8442C0390B0280390502A0390F8
:1023500010B50C4649B911461A464368C4601C685A
:102360001846A368BDE810401847034B9021034A64
:1023700003482DF0EBFF00BFB0280390F82D039029
:10238000502A039021B9C0E90411C0E90632704710
:1023900008B5034A8221034B03482DF0D7FF00BF45
:1023A000D42F0390B0280390502A03901AF038BB22
:1023B00090F83D3003B9704710B54FF0FF31044637
:1023C000406C16F0BFFA4FF48073A4F83D3010BD96
:1023D00038B50C4605464FF0FF31406C04EBC404A1
:1023E00016F0B0FA686C16F0D1FA002305EB8404FD
:1023F00084F8283095F828300BB92B6BAB6338BDC7
:1024000070B51C4C05461AF017FB94F829308BB9AF
:1024100094F82A3073B90123206C84F83D3016F00B
:102420005BFB94F83E30F3B968680368BDE8704020
:102430001B691847D4E90530E169226900FB03F301
:1024400001FB02F29342E6D394F83C0038B19B1AA8
:10245000B3FBF1F2994298BF02F1FF3262620123AD
:1024600084F82E30D7E7606C16F090FA002384F8D9
:102470003E30D9E7F89000241AF09BBA1AF0FDBB61
:1024800014484369D90323D5002310B5C0F884301C
:10249000BFF34F8FD0F8803043F6E074C3F34E3C67
:1024A000C3F3C90E4FEA4C1C0CEA0401734641EA1F
:1024B0008372013BC0F874225A1CF8D1ACF1200C95
:1024C0001CF1200FF0D1BFF34F8FBFF36F8F10BD02
:1024D000704700BF00ED00E010B5002933D104467D
:1024E000052A09D8DFE802F00F1E2227030900227F
:1024F000012380F82920036210BD003B18BF01238F
:1025000080F82D3010BD406803681B69984700288B
:10251000F2D00122002384F8292084F82C20C4E979
:10252000043310BD002380F8293010BD002203625F
:10253000C0E9042210BD00220121036280F82A10A4
:10254000C0E9042210BD034BA221034A03482DF029
:10255000FDFE00BFB028039090310390502A0390F5
:1025600010B539BB90F82930044623B994F82B30C4
:1025700063B9012010BD12494369096891F86B10D5
:102580000B44436194F82B30002BF2D0A168104625
:1025900013685B6911639847002394F82C0084F852
:1025A0002B300028E5D194F82D30002BE2D184F8AF
:1025B000290010BD034BD021034A04482DF0C6FE6C
:1025C000F4340224B028039064330390502A03901B
:1025D00090F8283070B5FBB90122856BC360A0F874
:1025E0002D2005F5872480F828200361436183614D
:1025F000C36103624362C0F82930D0E90C2632443B
:10260000944210D80B4A85608463184681F83430B0
:10261000C1F836200B6370BD074B40F2C511074A65
:1026200007482DF093FE074B5221074A04482DF02E
:102630008DFE00BFE0012001043503903435039086
:10264000502A0390BC360390F8360390084B4FF0A5
:102650008062C3F88820BFF34F8FBFF36F8F4FF0B6
:102660008072C3F88820BFF34F8FBFF36F8F70471E
:1026700000E100E0034B4FF080629A604FF08072FF
:102680009A60704700E100E038B504461AF0E1F9BD
:1026900023685D6E1DF048FC01462046A84723686C
:1026A000164AD3F8885095421CD1154A0125D3F813
:1026B0008C3002F57F311348C4E90F21124A0570AE
:1026C000934216D10023114A6364137064684FF477
:1026D00087200F4B0F49104A4C6459601A63C3E9B5
:1026E0000D0238BD0D4A00232046A2F57F31A847D0
:1026F000ECE7002120469847E8E700BF4908009032
:1027000000FC03D0F234022475060090F334022456
:10271000F8900024B090002400F40BD000F807D00B
:1027200010B5144C236823B3134B144A1B6C118847
:102730008B420AD013F0D2FD206803681B6A9847C9
:102740000020BDE81040FDF739BF0D4B198813F08C
:10275000C5FD226892F86A30013382F86A30FFF7CB
:102760008FF820681AF0CEFE0020BDE81040FDF77B
:10277000F1BE10BDF434022400100050AE900024CD
:10278000AC9000242DE9F043DFF8B88083B0012637
:102790004FF47077044624E02B6828465B6A98471C
:1027A0000023236229684FF4907300974FF4F0726E
:1027B000D1F814902846A168C847236984F82C00F2
:1027C00001332361002833D02B689B6A434531D104
:1027D000686901380022E06084F82E20606C16F0F1
:1027E000D5F84FF0FF31206C16F042F94FF0FF3171
:1027F000606C16F0A7F894F82E30002BEED0216A0A
:10280000656884F82B600029C6D1636A002BC9D0A3
:102810002A68D2E9099141450FD16869C118284653
:10282000C8472369616A00220B4462622361B9E7E9
:102830000120CFE728469847CBE728468847636AB8
:10284000ECE700BF39090090014808B5FFF79AFF8F
:10285000F890002438B515480025FEF715FC144CF7
:1028600014494FF480732A46012021602946A3852C
:10287000A387E560A56284F82E50A56384F83E50D6
:10288000C4E90455C4E90655C4E90855C4E90C5522
:10289000C4E91055C4E9015516F09AF803462846D4
:1028A000236416F00FF8606438BD00BFB0900024B8
:1028B000F8900024A43803900149002018F0A4BA2D
:1028C0001509009008B5642015F0EEFFFBE700BF86
:1028D00070B59EB04C2200210AA82EF00FF82022DD
:1028E000002102A82EF00AF8022013F035FF224B37
:1028F0000021224A0191D96A21F00101D962DB6AE3
:1029000003F001030193936943F440439361936996
:1029100003F440430193019B93699904FCD5012280
:102920004FF480330224082600250AA81794CDE925
:102930000A230522A023CDE915230423CDE913445E
:102940001893CDE91946CDE91B5513F0ADFF40238F
:102950003F22214607930DEB0600029203220993C2
:1029600004950392CDE905634FF48063089314F056
:102970002FFB1EB070BD00BF000400580048025875
:10298000D54A536913F400332DE9F04798B011D1BB
:10299000BFF34F8FBFF36F8FC2F85032BFF34F8F2B
:1029A000BFF36F8F536943F400335361BFF34F8F0D
:1029B000BFF36F8FC848436913F4803324D1C0F844
:1029C0008430BFF34F8FD0F8805043F6E076C5F3E4
:1029D0004E34C5F3C905640104EA06012B4641EAF9
:1029E0008372013B5F1CC0F86022F8D1203C14F1D7
:1029F000200FF1D1BFF34F8F436943F4803343611C
:102A0000BFF34F8FBFF36F8F002410F0D5FD012669
:102A10001B254FF0030802274FF00409CDE90B44B2
:102A2000CDE90D4410F080FE4FF01052AB4B0BA8D7
:102A3000ADF82C60CDE90C23A94B0E9310F092FE5B
:102A40004FF010430BA88DF82D600C938DF8374094
:102A50008DF83450ADF83A4010F084FE1A230BA8DC
:102A60008DF82D708DF8343040F20113ADF83780B9
:102A7000ADF83A3010F076FE4FF050430BA88DF8C9
:102A800034500C934FF480738DF82D80ADF83730AF
:102A9000ADF83A4010F066FE18230BA88DF8378089
:102AA0008DF834308DF83A608DF82D9010F05AFE84
:102AB000484610F047FEFFF70BFF62B6894DC02174
:102AC0000F94224688484FF0080ACDE90B44CDE91F
:102AD0000D44D5F8E03043F48063C5F8E030D5F814
:102AE000E03003F480630193019BD5F8E03043F0BC
:102AF0004003C5F8E030D5F8E03003F0400302931E
:102B0000029BD5F8E03043F48073C5F8E030D5F887
:102B1000E03003F480730393039BD5F8E03043F077
:102B20001003C5F8E030D5F8E03003F0100304934B
:102B3000049BD5F8E0303B43C5F8E030D5F8E030F1
:102B40003B400593059BD5F8E03043F40073C5F88E
:102B5000E030D5F8E03003F400730693069BD5F817
:102B6000E03043F00803C5F8E030D5F8E03003F07A
:102B700008030793079BD5F8E03043F02003C5F81E
:102B8000E030D5F8E03003F020030893089BD5F837
:102B9000E03043F08003C5F8E030D5F8E03003F0D2
:102BA00080030993099BD5F8E0303343C5F8E03042
:102BB000D5F8E03033400A930A9B11F0C3F922465E
:102BC00080214A4811F0BEF922464948082111F0F7
:102BD000B9F932463146474811F0B4F9224644214A
:102BE000454811F0AFF9C0230BA93F48CDF8388014
:102BF0000B93CDE90C6410F0A5FF80230BA93B4893
:102C00000B930E94CDE90C6410F09CFF0BA938488F
:102C1000CDF83880CDF82CA0CDE90C6410F092FFEF
:102C20000BA93448CDE90B66CDE90D4410F08AFFBD
:102C30000BA93148CDE90B96CDE90D4410F082FF88
:102C4000CDF838804FF040080BA92B48CDF82C80E8
:102C5000CDE90C6410F076FFD5F8D430224605217A
:102C600033437A20C5F8D430D5F8D430234D3340DF
:102C70000093009B10F0FAFC7A2010F035FD34220E
:102C800021460BA82DF03AFE1D4B2A2040F20A2CBB
:102C90002B6027234FF4047EAC866B610B23C5F8B1
:102CA00018A04FF0050A85F83640C5E9070340F241
:102CB0001B132846C5E909C340F21D13C5E90144A9
:102CC000C5E90BE3C5E9034413F062F94FF4F0736F
:102CD00022460BA90C9315E000ED00E01200000362
:102CE000010001010044025800040258000C02587F
:102CF0000018025800280258000002582C920024A4
:102D000000100050284615934FF488733F4D0E93E2
:102D10001693FF230B9410934FF480630D9412933A
:102D20000F9711941494ADF85C408DF85E40CDF887
:102D30004CA013F001FA364B2846EC652B60EC6092
:102D4000C5E91147C5E91344C5E91544C5E901477B
:102D500010F0B0FD3146284610F084FE2D484FF4A7
:102D6000C0730BA9CDF83CA00B97CDF83490C0F8F8
:102D70000C90C0F814808462C0E906344FF40063FC
:102D800003624FF48053436207230C930E93224B4C
:102D900003601023CDE910770361C0E9016415F0E9
:102DA000EFF9204610F09AF9204610F0E1F9FDF70E
:102DB00011FB1A4B1A48036012F0BEF819481A4B5F
:102DC000848003600662C0E9054410F0FDFCFDF755
:102DD00005FBFDF701FB15F0F1FC144A21461448F0
:102DE00015F018FD134B144A21461860134815F0CE
:102DF00011FD134B0546134A214613481D6015F07B
:102E000009FD124B186015F0EBFCFEE76C910024F5
:102E100000100052AC930024404100520030005298
:102E2000D491002448910024004C0258203903908A
:102E3000C528009044910024FC380390ED030090D5
:102E4000409100244439039049280090E0930024E5
:102E5000034B02689A4200D0704710F0DDBB00BF00
:102E600000100040704700BF0B4B00220F216FF095
:102E7000010010B4D3F8F44083B044F00204C3F866
:102E8000F440D3F8F43003F002030193019B03B044
:102E90005DF8044B10F0EABB004402580A4B02688C
:102EA0009A4200D07047A3F5006382B0D3F8E020C7
:102EB00042F40022C3F8E020D3F8E03003F400230A
:102EC0000193019B02B07047004C02580F4B0268FF
:102ED0009A4200D070470E4B5A200022052110B5AF
:102EE000D3F8D44082B044F01004C3F8D440D3F8EF
:102EF000D43003F010030193019B10F0B7FB5A206C
:102F000002B0BDE8104010F0EFBB00BF001000524F
:102F1000004402583F4B02689A4200D0704770B597
:102F20003D4B11223D4E82B03D4D0446726030460D
:102F3000D3F8D4203B4942F02002C3F8D4208022A9
:102F4000D3F8D430326203F02003316001930023C0
:102F500001993361C6E902324FF000727262202299
:102F6000C6E90633C6E90D33B2624FF400334FF4BD
:102F7000A042C6E90B2313236B600223736113F095
:102F8000CFF900283AD100222448114613F066FAFE
:102F900000283CD12022002326631320EA61AA6284
:102FA0004FF420322049AB602B62AB633464C5E937
:102FB0000C23C5E904330823C022C5E90010AB6126
:102FC0004FF4A0414FF000731548E962EA606B626C
:102FD00013F0A6F9C0B900221148114613F03EFAC9
:102FE00078B965637920002205212C6410F03EFB3E
:102FF000792002B0BDE8704010F076BBFFF732FFD9
:10300000C1E7FFF72FFFECE7FFF72CFFE3E7FFF740
:1030100029FFBFE70030005200440258D492002438
:103020004093002400020052C001005270B5BAB0B3
:1030300000210446C0220AA80991CDE90511CDE975
:1030400007112DF05BFC4A4B22689A4201D03AB03E
:1030500070BD022305224FF000540025A0211693D5
:1030600014925D2217934FF400630AA81591CDE9DD
:103070000A45CDE9182314F083FA002874D13D4B9A
:10308000022400250E26D3F8E42005A93A4842F090
:103090000802C3F8E420D3F8E42002F0080200920A
:1030A000009AD3F8E02042F48062C3F8E020D3F81D
:1030B000E02002F480620192019AD3F8E02042F409
:1030C0008072C3F8E020D3F8E02002F4807202920C
:1030D000029AD3F8E02042F40072C3F8E020D3F85B
:1030E000E02002F400720392039AD3F8E02042F049
:1030F0008002C3F8E020D3F8E030089403F08003A6
:1031000009960493FC23049A0593CDE9064510F033
:1031100019FD4DF2032305A918480593CDE906458D
:10312000CDE9084610F00EFD4FF6FB7305A91448D3
:103130000593CDE90645CDE9084610F003FD4FF4AF
:10314000007305A90F480996CDE90534CDE9075468
:1031500010F0F8FC2A460521582010F087FA582074
:1031600010F0C2FA3AB070BDFFF77CFE87E700BFEF
:103170000010005000440258002802580020025855
:1031800000240258001C025836480023D0B50168BC
:10319000B8B0CDE90233CDE90433069309B138B0B4
:1031A000D0BD0123B82203600AA82DF0A7FB4FF081
:1031B0008072002308A8CDE9082314F0E1F9002863
:1031C0004CD1294B4FF6837002210C24D3F8D42024
:1031D0000026032742F48052C3F8D420D3F8D43019
:1031E000069403F48053CDE90201019302A91F481C
:1031F000019BCDE9046710F0A5FC48F233120223CD
:1032000002A91B480694CDE90223CDE9046710F01A
:1032100099FC4CF20372022302A916480694CDE9E8
:103220000223CDE9046710F08DFC4FF63F02022324
:1032300002A911480694CDE90223CDE9046710F0F4
:1032400081FCE022022302A90C480694CDE9046720
:10325000CDE9022310F076FC38B0D0BDFFF702FEB6
:10326000AFE700BFE8930024004402580010025862
:1032700000180258000C025800140258001C025892
:10328000134B1A6802B1704710B5124A01244FF669
:10329000837111481C60D2F8D43023F48053C2F8F3
:1032A000D43010F081FD48F233110C4810F07CFD51
:1032B0004CF203710A4810F077FD4FF63F010948C0
:1032C00010F072FDE0210848BDE8104010F06CBD20
:1032D000E4930024004402580010025800180258D9
:1032E000000C025800140258001C02580F2801D983
:1032F0000120704730B501468BB0002204463620CD
:1033000010F0B4F9362010F0EFF91A4B1A4A69465A
:1033100002A81460D3F8E82042F01002C3F8E820B5
:10332000D3F8E83003F010030193019B14F008F880
:10333000079BBBB913F074FF104B0022104CA3FB8A
:103340000013104D40F2E73120469B0C2560A2602F
:10335000013BC4E90312636014F084FF30B1012023
:103360000BB030BD13F05CFF4000E5E7204615F0E0
:103370002FF8F5E7004402586C00002483DE1B435D
:10338000EC93002400100040704700BFFEE700BF30
:10339000FEE700BFFEE700BFFEE700BF704700BFCB
:1033A000014815F079B800BFEC930024014812F0F1
:1033B00061BE00BF2C920024014810F0BFBA00BFCC
:1033C0006C910024014812F041BD00BFD49100244B
:1033D000044808B513F002F90348BDE8084013F0AB
:1033E000FDB800BF40930024D49200240120704710
:1033F00008B52DF037FB162203464FF0FF301A6058
:1034000008BD00BF08B52DF02DFB16230360FEE7B5
:1034100070B5161E07DD0C468D19AFF3008004F859
:10342000010BA542F9D1304670BD00BF70B5161E24
:1034300007DD0C468D1914F8010BAFF30080AC4288
:10344000F9D1304670BD00BF4FF0FF30704700BF6C
:103450004FF4005300204B60704700BF01207047BD
:10346000002070470D490A6808B5034632B113447D
:103470006846834209D810460B6008BD08480246DA
:103480000860684613448342F5D92DF0EBFA0C230B
:103490004FF0FF320360104608BD00BF389400248F
:1034A00028410224704700BF10B5044604212CF0C7
:1034B0001FFF204610BD00BF012908B504D0022916
:1034C0000AD029B1002008BD08F002FF406808BDFD
:1034D00008F0FEFE006808BD08F0FAFE806808BD2E
:1034E000004870477C3903901220704769B1026828
:1034F00030B583B0002495680DF1030301AA01944F
:103500008DF80340A84703B030BD0846704700BFA0
:10351000C0897047008A7047C088704780887047AC
:10352000807A00F07F007047807AC009704700BF42
:10353000704700BF10B5044608212CF0D9FE204684
:1035400010BD00BF704700BF00F598730868496858
:1035500003C37047806A7047704700BF704700BF61
:10356000416070474FF0000C8A68C0F800C04260AC
:10357000704700BF704700BF704700BF0549002279
:1035800000F5A273C0F85021C0F84031C0E95201E3
:10359000704700BFF13B009001230372704700BFEA
:1035A000704700BF704700BF704700BF704700BF43
:1035B000704700BF704700BF704700BF704700BF33
:1035C000704700BF01464068036810315B6E1847C2
:1035D00001464068036810315B6E1847C2680346B5
:1035E00041684FEA620C01EB6200D20701D49B688C
:1035F000184751F80C209B68D358184743683BB1D3
:1036000083680BB101207047C06800F0010070476B
:103610001846704710B5044614212CF069FE204668
:1036200010BD00BF10B504460C212CF061FE2046F1
:1036300010BD00BF10B5044610212CF059FE2046E5
:1036400010BD00BF10B504464FF4AE712CF050FE13
:10365000204610BD10B5044638212CF049FE204606
:1036600010BD00BF10B5044628212CF041FE2046B5
:1036700010BD00BF10B5044638212CF039FE20469D
:1036800010BD00BF10B51CF04FFC0368BDE8104032
:10369000DB6B184730B5B3B00446C022204902A8FE
:1036A0002DF00DFA237C2F2B35D853B3022532AAE7
:1036B000302B02EB830222D852F8C03CB4F80EC083
:1036C000D4F80A20A1890192628993FBFCF00CFBDB
:1036D000103311FB00F1606812FB03F3ADF8021028
:1036E00002686946ADF8003013699847237C012DC4
:1036F0004FF0010503F10103DBB22374D7D133B0DE
:1037000030BD084A1278002AD0D01CF00DFC1CF005
:1037100011FC237CCAE70123237233B030BD00BF04
:1037200054140390F234022470B50446807A82B0B7
:103730000130637AC0B29842A07205D901220023F9
:103740002272A37202B070BDB4F90C200021B4F94A
:103750000E501EF01BF910F0010283B238D1A27A8C
:103760005D1BE081012AADB23FD058422549264A6F
:10377000ADF804000888002112880344ADF8021057
:10378000ADF80620ADF800301CF0CEFB02AA0368AD
:1037900012E906001B6C984760681C4A0368DB69E5
:1037A00093422CD1846A002CCCD0194E2368A18876
:1037B0001B6B2944B34209B204D1A180A469002C37
:1037C000F4D1BFE720469847A469002CEED1B9E7B1
:1037D0004FF6FF710028D8BF0A461A4493B2A27A66
:1037E0005D1B012AE381ADB2BFD10A4A1278002ADB
:1037F000BBD01CF099FB1CF09DFBE389B5E7984713
:103800000446D0E7E8340224EA3402245535009017
:10381000E9210090F234022470B506464068134A4C
:103820000368DB6993421DD1846A64B1B289104D8B
:103830002368A1881B6B891AAB4209B20BD1A18006
:10384000A469002CF4D1706806F110010368BDE88A
:1038500070401B6E184720469847A469002CF2D090
:10386000B289E5E798470446DFE700BF5535009089
:10387000E921009070B50446807A82B00130637A05
:10388000C0B29842A07205D9012200232272A3720D
:1038900002B070BDB4F90C200021B4F90E601EF026
:1038A00075F810F0010385B207D04FF6FF720028BB
:1038B000D8BF13461D4428B2ADB2A37AAD1BE08138
:1038C000012BADB22BD01D4B0022ADF804001B889C
:1038D0000092ADF806301CF027FB02AA036812E93B
:1038E00006001B6C98476068154A0368DB699342C1
:1038F00020D1846A002CCBD0124E2368A1881B6B88
:103900002944B34209B204D1A180A469002CF4D1A6
:10391000BEE720469847A469002CEED1B8E70A4BD1
:103920001B78002BCFD01CF0FFFA1CF003FBB4F97E
:103930000E00C8E798470446DCE700BFEA340224DB
:1039400055350090E9210090F234022470B5064606
:103950004068134A0368DB6993421DD1846A64B1ED
:10396000B289104D2368A1881B6B891AAB4209B23A
:103970000BD1A180A469002CF4D1706806F110016C
:103980000368BDE870401B6E184720469847A4693D
:10399000002CF2D0B289E5E798470446DFE700BF84
:1039A00055350090E92100902DE9F047D0E9555AAE
:1039B0000746A86803681B6A9847B0F51E7FC0F0E9
:1039C000BB80686803681B6A98470F2840F2AE8086
:1039D000E86803681B6A9847132840F2A180DFF863
:1039E00090911CF0A1FA04301CF004FBD9F80000FF
:1039F00040B10368DB689847D9F8000010B103684C
:103A00001B689847DFF86C81D8F80000002877D051
:103A100003685B699847D7F83C01002869D00368C0
:103A20005B689847D8F8000010B103681B68984796
:103A3000D7F83C0110B103689B689847E8680021FB
:103A400003685B6A98473F4B3F4A00211B88044646
:103A5000128841600172934201743C4901603FD871
:103A60003B4905330732A1FB03130621D2089B080B
:103A7000A86863810368A2815B6AE181002198479D
:103A800006460EF00DFC6868002103685B6A9847E3
:103A9000054631460EF0D8FBC9F80040C7F83C5146
:103AA000C8F8006055B32B1DCAF8003030463368A3
:103AB000C5F808A0DB68F56398472B6828461B68A3
:103AC0009847214630461DF05BFF236821491A695B
:103AD0008A421AD15B69204A93421DD1BDE8F08722
:103AE0001B4905320733A1FB02120821DB089208AB
:103AF000BEE7D8F80000002897D19FE72B46D3E710
:103B0000D7F83C0100288AD198E7204690472368DF
:103B1000114A5B699342E1D02046BDE8F04718475F
:103B20000E4BA5210E4A0F482CF010FC0E4BA42181
:103B30000B4A0C482CF00AFC0C4BA321084A0948FC
:103B40002CF004FCE8340224EA340224D04603902A
:103B5000ABAAAAAAA5350090A9350090903D039084
:103B6000843B0390A43C0390EC3C0390F43A039014
:103B70003435022430350224D0F84031D3B11A68EC
